:020000040800F2
:10000000089C0020DD010008093000080B300008C2
:100010000D3000080F30000811300008000000000B
:100020000000000000000000000000004501000882
:100030001330000800000000890100081530000896
:10004000F7010008F7010008F7010008F7010008B0
:10005000F7010008F7010008F7010008F7010008A0
:10006000F7010008F7010008F7010008F701000890
:10007000F7010008F7010008F7010008F701000880
:10008000F7010008F7010008F7010008F701000870
:10009000F7010008F7010008F7010008F701000860
:1000A000F7010008F7010008F7010008F701000850
:1000B000F7010008F7010008F7010008F701000840
:1000C000F7010008F7010008F7010008F701000830
:1000D000F701000829300008F7010008F7010008BF
:1000E000F7010008F7010008F7010008F701000810
:1000F000F7010008F7010008F7010008F701000800
:10010000F7010008F7010008F7010008F7010008EF
:10011000F701000887330008F7010008F70100081D
:10012000F7010008F7010008F7010008F7010008CF
:10013000DFF80CD003F0B8FC00480047732F00082C
:10014000089C0020224B19680868B0E8F00F80F383
:100150000988BFF36F8F4FF0000080F311884EF0D5
:100160000D0E70470000000006480068006880F32C
:10017000088862B661B6BFF34F8FBFF36F8F00DFA1
:1001800000BF00BF08ED00E0EFF30980BFF36F8F01
:100190000F4B1A6820E9F00F106008B54FF05000BF
:1001A00080F31188BFF34F8FBFF36F8F01F041FDD4
:1001B0004FF0000080F31188BDE808401968086816
:1001C000B0E8F00F80F30988BFF36F8F704700BF6E
:1001D00028000020EFF305807047000006488047A4
:1001E00006480047FEE7FEE7FEE7FEE7FEE7FEE71C
:1001F000FEE7FEE7FEE7FEE7A10200083101000886
:100200000CB500224C4800920192016841F4803103
:1002100001604FF4A063016801F40031019100997D
:10022000491C0091019911B900999942F3D10168D3
:10023000890333D50121019140490A6842F0100237
:100240000A600A6822F003020A600A6842F00202A9
:100250000A604168416041684160416841F48061E1
:100260004160416821F47C114160416841F4E8112A
:100270004160016841F08071016001688901FCD52D
:10028000416821F003014160416841F00201416091
:100290004168C1F381010229FAD10CBD01920CBD64
:1002A000254810B5016841F0010101604168244A08
:1002B000114041600168234A11400160016821F446
:1002C00080210160416821F4FE0141604FF41F016B
:1002D0008160FFF795FF1C494FF00060086010BD7A
:1002E000154A10B55068194B10F00C01184803D08E
:1002F000042901D0082901D0036012E05168536835
:1003000001F470114FF0020413F4803F04EB9141AB
:1003100002D053689B0301D50E4B00E00B4B5943B1
:10032000016051680A4AC1F30311121D515C026851
:10033000CA40026010BD00000010024000200240D0
:100340000000FFF8FFFFF6FE08ED00E000127A0063
:100350000000002000093D002849084328490860A2
:10036000704730B50F23C27801780125F2B1244AD5
:10037000126801F1E02102F4E062C2F5E062120AC3
:10038000C2F10404D3404278A24084781C40144354
:10039000220181F80024007800F01F018D404009FF
:1003A000800000F1E020C0F8005130BD01F01F00D6
:1003B00085404809800000F1E020C0F8805130BD40
:1003C000104A114001430E48001F016070470C4A5B
:1003D000121D0029116801D0014300E08143116022
:1003E00070474FF0E0210428086903D020F0040092
:1003F0000861704740F00400FAE700000000FA05C9
:100400000CED00E080FFFF1F8F4910B5884206D138
:100410000121042000F049FA002104203BE08B492F
:10042000884206D10121082000F03FFA002108206F
:1004300031E08749884206D10121102000F035FAC9
:100440000021102027E08349884206D10121202085
:1004500000F02BFA002120201DE07F49884206D1C0
:100460000121402000F021FA0021402013E07B49C7
:10047000884206D10121802000F017FA0021802057
:1004800009E0774988420AD184150121204600F00D
:100490000CFA00212046BDE8104000F006BA10BD5D
:1004A00010B50121084600F000FA0021BDE8104017
:1004B000012000F0FAB9F0B5CC78002204F00F0367
:1004C000E40601D58C7823430C784FF00F0C14F020
:1004D000FF0F4FF0010E1BD005680E880EFA02F4D4
:1004E0002640A64210D196000CFA06F725EA070727
:1004F00003FA06F5CE783D43282E02D0482E02D0CE
:1005000002E0446100E00461521C082AE5D3056062
:100510000A88FF2A1CD94468002202F108060EFA54
:1005200006F50E882E40AE420ED196000CFA06F764
:10053000BC4303FA06F7CE783C43282E00D1456130
:10054000CE78482E00D10561521C082AE5D34460BC
:10055000F0BD4FF6FF710180022181700421C1704E
:1005600070470246002092680A4200D0012070477E
:10057000806880B2704702460020D2680A4200D0EC
:1005800001207047C06880B27047016170474161C7
:1005900070470AB10161704741617047C16070479F
:1005A00041F4803282618161826181698069704732
:1005B0002C4B10B51A684FF68074224042EA0010A6
:1005C0000843186010BD2849C8617047F0B5254C34
:1005D000002801DAE36900E06368450D2E0185B269
:1005E000C0F30157B540C0F30342032F05D0C60244
:1005F0000AD503269640B34307E023F07062636890
:1006000023F07063636002E0AB4343F0706201B1BA
:100610002A43002801DAE261F0BD6260F0BD10B546
:100620008A0721F003040F49120F21440F238C681D
:1006300093409C438C608B68904003438B6010BD5B
:100640000949C1F8DC00704700080140000C014076
:10065000001001400014014000180140001C01403E
:10066000002001400000014000002042A548016830
:1006700041F0010101604168A34A114041600168F5
:10068000A24A11400160016821F4802101604168A3
:1006900021F4FE0141604FF41F01816070479949C8
:1006A0000A6822F480320A600A6822F480220A6012
:1006B000B0F5803F07D0B0F5802F03D1086840F433
:1006C000A02008607047086840F48030F9E70346CE
:1006D000002059098B4A01290AD002290AD0516AFF
:1006E00003F01F02012393400B4200D0012070470A
:1006F0001168F5E7116AF3E718B500204FF4A0641C
:1007000000903120FFF7E3FF0099491C0091A142BE
:1007100001D00028F5D03120FFF7D9FF002800D004
:10072000012018BD774A116821F0F80141EAC000A4
:1007300010607047764908607047724B5A680843EA
:1007400022F47C1210435860704771490866704764
:100750006C4A516821F003010143516070476948B8
:10076000406800F00C007047664A516821F0F001C3
:10077000014351607047634A516821F4E0610143CD
:10078000516070475F4A516821F4605141EAC000EE
:10079000506070475B4A0029517A01D0014300E064
:1007A0008143517270475A49C1F8D8007047554A81
:1007B000516821F440410143516070475149002282
:1007C00081F8202081F82020012802D0042802D1BD
:1007D000052081F8200070474E490860704749495C
:1007E0000A6A02430A6270474A49443908607047FE
:1007F00030B5444A5168484B11F00C0103D004292C
:1008000001D0082901D0036012E05168536801F457
:1008100070114FF0020413F4803F04EB914102D0B9
:1008200053689B0301D53D4B00E03B4B59430160AE
:1008300051680F2303EA1111394B5C5C0168E140F8
:1008400041605468072505EA14241C5D21FA04F46C
:100850008460546805EAD4241B5DD940C1605268A5
:10086000032303EA92322E4B1B1F9A5CB1FBF2F179
:10087000016130BD234A0029516901D0014300E0E4
:100880008143516170471F4A0029916901D001439A
:1008900000E08143916170471A4A0029D16901D073
:1008A000014300E08143D1617047164A0029D168B5
:1008B00001D0014300E08143D1607047114A002913
:1008C000116901D0014300E0814311617047114972
:1008D0004039086070470E49C86470470949C871BB
:1008E00070470848416A41F0807141627047054A8B
:1008F0000146002092680A4200D001207047014959
:1009000088727047001002400000FFF8FFFFF6FEFB
:10091000000042428004424200127A0000093D0079
:1009200018000020C44910B588420AD101218C0367
:100930002046FFF7BAFF2046BDE810400021FFF730
:10094000B4BFBE49884202D101214C0410E0BC4929
:10095000884202D101218C040AE0BA49884202D1BE
:100960000121CC0404E0B84988420AD101210C05D8
:100970002046FFF7A3FF2046BDE810400021FFF707
:100980009DBF10BD30B50446008A85B00D464CF6BB
:10099000FF710840E98801432182A0894EF6F311D6
:1009A0000840A9882A8911436A8902431143A18119
:1009B000A08A4FF6FF410840A9890143A1826846F9
:1009C000FFF716FF9C48844201D1039800E002988B
:1009D000A189090400EBC00101EB0010296801D5D1
:1009E000490000E08900B0FBF1F06422B0FBF2F1B5
:1009F00009010B096FF018056B4300EB8300A38915
:100A00001D044FF0320306D503EBC000B0FBF2F03B
:100A100000F0070005E003EB0010B0FBF2F000F07F
:100A20000F000843208105B030BD4FF4165101601E
:100A300000218180C18001810C2242818181704727
:100A400010B5028A4FF2FF031A400B884C882343EB
:100A50008C88C9880C4323431343038210BD0021B3
:100A6000018041808180C18070470029818902D046
:100A700041F4005101E021F400518181704710B52B
:100A8000C1F3421301F01F040121A140012B07D043
:100A9000022B07D01430002A026805D00A4304E074
:100AA0000C30F8E71030F6E78A43026010BD002AE8
:100AB000828A01D00A4300E08A4382827047028A18
:100AC00022F00F020282028A0A4302827047828960
:100AD00022F40062828182890A4382817047002960
:100AE000818902D041F0020101E021F002018181FF
:100AF0007047028A22F020020282028A0A4302829E
:100B000070470029018A02D041F4804101E021F4BC
:100B1000804101827047C1F308018180704780885D
:100B2000C0F308007047818941F00101818170475D
:100B3000028BD2B20283028B42EA01210183704709
:100B4000028B02F47F420283028B0A4302837047C6
:100B50000029818A02D041F0200101E021F020012A
:100B6000818270470029818A02D041F0100101E0A2
:100B700021F01001818270470029818A02D041F062
:100B8000080101E021F00801818270470029818974
:100B900002D041F4004101E0C1F30E0181817047B0
:100BA0000029818A02D041F4006101E021F4006152
:100BB00081827047828A22F004028282828A0A43FA
:100BC000828270470029818A02D041F0020101E04F
:100BD00021F00201818270470246002012880A42F9
:100BE00000D001207047C9430180704770B501F003
:100BF0001F0501260024C1F3421306FA05F2012B5A
:100C00000FD0022B0FD0838A4FEA112100881342A4
:100C100006FA01F600EA060001D000B101242046E0
:100C200070BD8389F0E7038AEEE70A0A012191404B
:100C3000C943018070470000003801400044004073
:100C400000480040004C00400050004000F1080106
:100C50004FF0FF32C0E90112C16001610021016063
:100C6000704700210161704742684A6093688B6059
:100C700093685960916008610168491C0160704780
:100C800030B50C68621C02D000F1080202E0026973
:100C900004E01A4653681D68A542FAD953684B60B0
:100CA00099608A60516008610168491C016030BD2B
:100CB000D0E9013201699A60D0E901235A604A689B
:100CC000824201D182684A60002202610868401EA7
:100CD0000860704770B50D46040005D140F21B1244
:100CE000F3A1FAA002F0F2FE02F0A8F8D4E90F2076
:100CF000216802FB001161600021A1632168A160ED
:100D00000A46D4E90F01401E00FB0121E1602146A3
:100D10004FF0FF3001F8440F487004F110004DB15E
:100D2000FFF794FF04F12400FFF790FF02F0A0F812
:100D3000012070BD21690029F8D001F057F9002881
:100D4000F4D0E6494FF080500860BFF34F8FBFF3F7
:100D50006F8FEBE770B50E46050005D14FF4C472F6
:100D6000D3A1DAA002F0B2FEA6B105FB06F04C302A
:100D700001F00EFF04000CD004F14C0066B12060BD
:100D8000C4E90F5620460121FFF7A4FF00212046A9
:100D9000A16470BD0020EAE72460F1E72DE9F0418D
:100DA000856B164604460027026CFAB17EB1E068F6
:100DB00002F040FEE168206C091AE160226891426D
:100DC00002D26168081AE060022E0DD00EE0A06821
:100DD00002F030FE216CA0680844A060616888427F
:100DE00004D32068A06001E005B16D1E6D1CA563F1
:100DF0003846BDE8F0812DE9F3410F460098002602
:100E0000846C2CB940F6CE12A9A1B0A002F05EFE0F
:100E1000A06BE16B884205D340F6CF12A4A1ABA032
:100E200002F054FEA06BE16B88420CD294F945505D
:100E30003A4669462046FFF7B1FF0646681C05D0D2
:100E40006D1C84F845503046BDE8FC81606A00287E
:100E5000F9D004F1240001F0C9F80028F3D00126EC
:100E6000F1E72DE9F041044601F0E8FF94F945501F
:100E700004F1240610E0A06C20B100212046FFF709
:100E8000BAFF04E0606A48B1304601F0AFF808B13B
:100E900001F05EF96D1E6DB2002DECDC4FF0FF36F7
:100EA00084F8456001F0E4FF01F0C8FF94F9445074
:100EB00004F1100709E0206948B1384601F096F8BE
:100EC00008B101F045F96D1E6DB2002DF3DC84F818
:100ED0004460BDE8F04101F0CBBF2DE9FF4F83B086
:100EE00099468B4604004FF0000605D140F2D92206
:100EF0006FA176A002F0EAFDBBF1000F07D1206CD4
:100F000028B140F2DA226AA170A002F0DFFDB9F147
:100F1000020F08D1E06B012805D040F2DB2264A16A
:100F20006AA002F0D3FD01F017F938B9059828B18D
:100F300040F2DE225EA165A002F0C8FD4FF0000A7B
:100F40004FF08057DFF8948101F078FFA06BE16BE0
:100F5000884206D3B9F1020F03D0059800B316B347
:100F600025E04A4659462046FFF718FFA16C21B1FB
:100F700049462046FFF73FFF05E0616A19B104F1D9
:100F8000240001F033F828B1C8F80070BFF34F8F88
:100F9000BFF36F8F01F06CFF012007B0BDE8F08F49
:100FA00001F066FF21E0684601F08EF8012601F0AD
:100FB0005FFF00F013FD01F041FF94F94400401C75
:100FC00001D184F844A094F94500401C01D184F873
:100FD00045A001F04DFF05A9684601F086F830B143
:100FE0002046FFF73EFF00F06BFC0020D5E701F044
:100FF00025FFA06BE16B884201D1012500E00025AF
:1010000001F036FF95B104F11000059900F095FF4D
:101010002046FFF726FF00F053FC002894D1C8F8C3
:101020000070BFF34F8FBFF36F8F8DE72046FFF740
:1010300018FF00F045FC87E72DE9F0479846154674
:101040008946040005D140F29F3219A11FA002F089
:101050003DFDB9F1000F07D1206C28B14FF4687243
:1010600013A11AA002F032FDB8F1020F08D1E06B13
:10107000012805D040F2A1320DA114A002F026FDF6
:1010800001F01BFF5020EFF3118780F31188BFF3AD
:101090004F8FBFF36F8FA06BE16B884220D3B8F105
:1010A000020F1DD0002087F31188BDE8F0870000F3
:1010B0002E2E5C2E2E5C4672656552544F535C7327
:1010C00072635C71756575652E6300004572726FA1
:1010D000723A25732C25640D0A00000004ED00E02F
:1010E00094F94560424649462046FFF757FE701C7A
:1010F00004D0761C84F845600120D4E7A06C01265A
:1011000020B141462046FFF776FE06E0606A0028DF
:10111000F2D004F1240000F069FF0028ECD0002D8B
:10112000EAD02E60E8E72DE9F0410D46040007D132
:1011300040F23C42AFF28801AFF2700002F0C6FC10
:10114000206C38B14FF48862AFF29C01AFF284009A
:1011500002F0BCFC206848B9606838B140F24542F2
:10116000AFF2B401AFF29C0002F0B0FC01F0A5FEBA
:101170005020EFF3118680F31188BFF34F8FBFF338
:101180006F8FA16BE06B88421FD994F94500491C11
:10119000A163411C04D0401C84F84500012015E0E7
:1011A000A06C012720B100212046FFF724FE06E0B5
:1011B000606A0028F2D004F1240000F017FF002834
:1011C000ECD0002DEAD02F60E8E7002086F31188EC
:1011D0000FE630B4026C0B46002A0BD0C1681144F4
:1011E000C1604468A14201D30168C16030BC1846A7
:1011F00002F020BC30BC70472DE9FF4F83B09B4606
:101200008A4604004FF0000607D140F2DC42AFF2FC
:101210006011AFF2481002F059FCBAF1000F09D189
:10122000206C38B140F2DD42AFF27C11AFF26410B5
:1012300002F04CFC00F090FF48B9059838B14FF42B
:101240009C62AFF29411AFF27C1002F03FFC4FF0C1
:1012500000094FF08057DFF8F88301F0EFFDA56B30
:101260000DB351462046E668FFF7B3FFBBF1000F10
:1012700011D0E660606A50B104F1240000F0B6FEBF
:1012800028B1C8F80070BFF34F8FBFF36F8F01F024
:10129000EFFD012081E66D1EA56320690028F6D0D0
:1012A00004F11000EAE7059808B11EB106E001F06C
:1012B000DFFD27E0684600F007FF012601F0D8FDBA
:1012C00000F08CFB01F0BAFD94F94400401C01D100
:1012D00084F8449094F94500401C01D184F845906D
:1012E00001F0C6FD05A9684600F0FFFE0028204673
:1012F0000AD0FFF7B6FD00F0E3FA204600F09AF9B5
:101300000028AAD0002048E600F094F990B104F13A
:101310002400059900F011FE2046FFF7A2FD00F021
:10132000CFFA002899D1C8F80070BFF34F8FBFF3F0
:101330006F8F92E72046FFF794FD00F0C1FA8CE72B
:101340002DE9F04790468946040007D14FF4B46276
:10135000AFF2A421AFF28C2002F0B8FBB9F1000F7C
:1013600009D1206C38B140F2A152AFF2BC21AFF2EA
:10137000A42002F0ABFB01F0A0FD5020EFF3118799
:1013800080F31188BFF34F8FBFF36F8FA66BF6B159
:1013900094F9445049462046FFF71BFF761EA6638A
:1013A000681C04D06D1C84F84450012010E02069B2
:1013B0000028FAD004F1100000F018FE0028F4D044
:1013C000B8F1000FF1D00121C8F80010EDE70020BE
:1013D00087F3118869E62DE9F0410E46040007D134
:1013E00040F2FC52AFF23831AFF2203002F06EFB27
:1013F0004EB9206C48B140F2FD52AFF24C31AFF221
:10140000343002F063FB206C38B940F2FE52AFF288
:101410006031AFF2483002F059FB01F04EFD502030
:10142000EFF3118580F31188BFF34F8FBFF36F8FF8
:10143000A06B30B131462046E768FFF7CAFE0120B5
:10144000E76085F31188D4E410B5040007D140F2B9
:101450002F62AFF2A431AFF28C3002F037FB01F013
:10146000EDFCA46B01F004FD204610BD10B5040096
:1014700007D140F24162AFF2C831AFF2B03002F0B2
:1014800025FB01F0DBFCD4E90E10441A01F0F0FC5E
:10149000204610BD10B5040007D140F25162AFF2F2
:1014A000F031AFF2D83002F011FBA06B10BD694AE9
:1014B000002102EBC1035B68834206D1002042F8A1
:1014C000310002EBC10148607047491C0A29F0D382
:1014D000704710B5040007D140F25D62AFF23041B1
:1014E000AFF2184002F0F2FA2046FFF7E0FF204684
:1014F000BDE8104001F0B7BB10B5040007D140F2C1
:101500009372AFF25441AFF23C4002F0DFFAA06BAD
:1015100008B1002010BD012010BD10B5040007D196
:1015200040F2BA72AFF27841AFF2604002F0CEFA08
:10153000A06BE16B884201D1012010BD002010BDDD
:1015400010B5444B002253F832401CB1521C0A2AF9
:10155000F9D310BD43F8321003EBC201486010BD4F
:1015600010B500243B4A214602EBC1035B6883426D
:1015700002D152F8314002E0491C0A29F4D3204636
:1015800010BD70B515460E46044601F057FC94F99F
:1015900044100020491C01D184F8440094F94510FE
:1015A000491C01D184F8450001F062FCA06B28B908
:1015B0002A46314604F1240000F0FDFC2046BDE837
:1015C00070404EE400220421FFF7C4BB70B50D4605
:1015D000044601F033FCA06C08B9A06B08B10024EC
:1015E00001E0A564012401F043FC204670BD10B564
:1015F0000446806C884201D1A06B08B1002010BD68
:1016000001F01CFC0020A06401F032FC012010BDA0
:1016100008B500230A4669460093FFF7EDFD0098E0
:1016200008BD08B500210A4600916946FFF788FE0B
:10163000009808BD10B5044601F000FCA06B20B175
:10164000002401F015FC204610BD0124F9E700003C
:1016500004ED00E0C00000202DE9F041054601F056
:10166000EDFBFE4EB068401CB0603068FC4F10B11E
:10167000706930B32BE03560B068012827D10024B1
:1016800004EB840007EB8000FFF7E0FA641C202CD9
:10169000F6D3F448FFF7DAFAF2481430FFF7D6FA37
:1016A000F0482830FFF7D2FAEE483C30FFF7CEFA88
:1016B000EC485030FFF7CAFAEA4870631430B06360
:1016C00005E03068E96AC06A884200D83560706A0F
:1016D0000121401C7062E86A326981401143316126
:1016E00000EB800007EB8000291DFFF7BDFA01F039
:1016F000BFFB706900280CD03068E96AC06A884274
:1017000007D2D9494FF080500860BFF34F8FBFF325
:101710006F8FBDE8F0812DE9FF5F8346DDE90E871D
:10172000994616468A46900001F032FA05001AD012
:101730004C2001F02DFA040012D025630021CDE9E0
:101740000241CDE900874B4632465146584600F0EB
:10175000CCFE2046FFF780FF012004B0BDE8F09FDB
:10176000284601F080FA4FF0FF30F6E770B50446E6
:1017700001F064FBB94D04B92C68201DFFF798FAFD
:1017800058B9E06AB64A00EB800152F8211021B93D
:1017900001218140286988432861A06A18B104F1B9
:1017A0001800FFF785FA686A401C6862286884425E
:1017B00008D1AC48211D3C30FFF756FA6868401C40
:1017C000686007E0A868401EA860204600F0DEFEC2
:1017D00000F0CFFE01F04CFB6869002812D02868A9
:1017E00084420FD1286B28B140F265429FA1A6A088
:1017F00002F06CF99C494FF080500860BFF34F8FA6
:10180000BFF36F8F70BD2DE9F041944F0026386B08
:1018100038B1B869401CB861F86900B1012630469A
:1018200077E7FD686D1CFD6011D1786B006828B109
:1018300040F6D9128DA194A002F048F9786BB96BEB
:101840007963B863386A401C386200F092FEB86A67
:10185000DFF80C82854209D3786B006880B1786B21
:10186000C068C468606885420DD2B8623868C06AD2
:1018700000EB800158F821000128CDD90126CBE7E3
:101880004FF0FF30F1E7201DFFF712FAA06A18B100
:1018900004F11800FFF70CFAE06A01213A6981406F
:1018A0001143396100EB800108EB8100211DFFF736
:1018B000DBF9E06A3968C96A8842CDD30126CBE7F3
:1018C0002DE9F047654D00242746286B28B94FF4D1
:1018D000FD6266A16CA002F0F9F801F0AFFA286B86
:1018E000401E2863286BE0BBA8685E4928310126AA
:1018F000B8B3DFF86C918846D8F80010E9B1D8F891
:101900000C00C46804F11800FFF7D2F9201DFFF79E
:10191000CFF9E06A2A6906FA00F11143296100EB68
:10192000800109EB8100211DFFF79EF9E06A29681B
:10193000C96A8842E0D3EE61DEE70CB100F019FE1F
:10194000AC693CB1FFF75FFF00B1EE61641EF9D1F5
:101950000020A861E86920B14349012738070860E1
:1019600000E003E0BFF34F8FBFF36F8F01F080FA09
:101970003846BDE8F0872DE9F041384E0F46044661
:10198000F5683068001DFFF793F938B9306890F8B2
:101990002C1001208840316981433161601C08D1DD
:1019A0003FB13168BDE8F0412E485030091DFFF7C6
:1019B0005BB930682C44AC424460316805D2B06BEE
:1019C000BDE8F041091DFFF75BB9706B091DFFF71A
:1019D00057F9B06A844200D2B4629AE61F48016B9C
:1019E000491C016370472DE9F0410E4605004FF098
:1019F000000405D140F279421CA123A002F066F850
:101A00002EB940F27A4219A11FA002F05FF8134FDD
:101A1000386B28B140F27B4214A11BA002F056F8AB
:101A2000FFF7DCFFFA6828688119904202D98842E2
:101A300002D804E0884201D8914200D901242960EB
:101A40001CB1881A0021FFF796FFFFF739FF002825
:101A500026D105494FF0805008601DE02800002085
:101A6000100100209003002004ED00E02E2E5C2EDB
:101A70002E5C4672656552544F535C7372635C749E
:101A800061736B732E6300004572726F723A257337
:101A90002C25640D0A000000BFF34F8FBFF36F8F3A
:101AA00037E610B5040014D0FE49096B39B140F295
:101AB000CF42AFF24801AFF2300002F007F8FFF773
:101AC0008DFF00212046FFF756FFFFF7F9FE0028A3
:101AD00007D1F5494FF080500860BFF34F8FBFF337
:101AE0006F8F10BD70B5050007D140F2FB42AFF219
:101AF0008401AFF26C0001F0E9FFEA4E30688542E4
:101B000001D1002070BD01F099F96C6901F0B0F9C4
:101B1000706B844202D0B06B844201D1022070BD50
:101B2000E248844204D1A86A0028F7D1032070BD9E
:101B3000DE481438844202D00CB1012070BD04206C
:101B400070BD10B5044601F079F90CB9D5480468A8
:101B5000E46A01F08DF9204610BD10B5044601F08D
:101B6000ACF95020EFF3118180F31188BFF34F8F50
:101B7000BFF36F8F0CB9CB480468E06A81F311881A
:101B800010BD2DE9F04100260D460446202908D35A
:101B90004FF4B062AFF22C11AFF2141001F096FFC7
:101BA0001F2501F04BF9BF4F04B93C68E06AA84219
:101BB0003BD03968854206D98C4207D03968C96A5A
:101BC000A94202D902E08C4200D101268046E5629A
:101BD000A069002802DBC5F12000A061B44D08EB2C
:101BE0008800616905EB8000814215D1201DFFF757
:101BF0005FF8012120B93A6901FA08F082433A619D
:101C0000E06A3A6981401143396100EB800005EBDD
:101C10008000211DFFF728F83EB1A3494FF0805006
:101C20000860BFF34F8FBFF36F8FBDE8F04101F045
:101C30001FB970B59B4D286B10B10120E86170BDD4
:101C40000020E86128699A4EB0FA80F0C0F11F00C8
:101C500000EB800456F8240038B940F6F622AFF2C3
:101C6000F411AFF2DC1001F031FF06EB840000F15B
:101C70000802416849684160914201D14968416068
:101C8000C868286070BD70B5044601F0D7F8854D6E
:101C900004B92C68201DFFF70BF858B9E06A844A94
:101CA00000EB800152F8211021B9012181402869FF
:101CB00088432861A06A18B104F11800FEF7F8FF04
:101CC000211D7A48FEF7D0FF01F0D2F8686928B1EB
:101CD00001F0B4F800F04DFC01F0CAF82868844225
:101CE00013D1686990B1286B38B140F25762AFF2F6
:101CF0008421AFF26C2001F0E9FE6B494FF0805077
:101D00000860BFF34F8FBFF36F8F70BD6748A9683E
:101D10000068884202D10020286070BDBDE8704094
:101D200087E770B50025040007D140F28162AFF269
:101D3000C421AFF2AC2001F0C9FE5C496069884261
:101D400005D1A06A2839884201D000B9012528466A
:101D500070BD70B504002BD0524D2868844231D03C
:101D600001F06CF82046FFF7DCFFE8B1201DFEF71C
:101D70009FFFE06A01212A698140114329614C4992
:101D800000EB800001EB8000211DFEF76DFFE06A93
:101D90002968C96A884207D343494FF080500860D8
:101DA000BFF34F8FBFF36F8FBDE8704001F060B895
:101DB00040F2AB62AFF24C31AFF23430BDE870406C
:101DC00001F084BE70BD2DE9F0410026040007D16A
:101DD00040F2E262AFF26C31AFF2543001F076FEC5
:101DE00001F06BF85020EFF3118580F31188BFF3F9
:101DF0004F8FBFF36F8F2046FFF793FFF0B1294F4E
:101E0000386B20B1294804F11801283814E0E06A41
:101E10003968C96A884200D30126201DFEF748FFB1
:101E2000E06A01213A69814011433961204900EBA0
:101E3000800001EB8000211DFEF716FF85F311885D
:101E4000304666E41A4E4FF08054174D00F0A8FB60
:101E500030680128FAD92C60BFF34F8FBFF36F8F22
:101E6000F4E71CB50F4800242C30CDE90040234690
:101E7000802210A11148FFF74EFC012803D100F089
:101E8000B0FC01280CD0401C2BD140F28472AFF280
:101E90002441AFF20C4002B0BDE8104001F016BE84
:101EA00050200DE02800002004ED00E0E0030020B9
:101EB0001001002049444C4500000000451E000868
:101EC00080F31188BFF34F8FBFF36F8FF8484FF047
:101ED000FF31816201214161C460BDE81C4000F016
:101EE0006BBF1CBD502080F31188BFF34F8FBFF331
:101EF0006F8FEF490020486100F094BFEC48C06844
:101F0000704710B500F0D9FFE948C06810BDE84837
:101F10008068704710B510B104461CB10AE0E4486F
:101F20000468FAE740F68C02AFF2C041AFF2A84075
:101F300001F0CCFD04F1340010BD70B50D46040075
:101F400007D140F60632AFF2DC41AFF2C44001F0F7
:101F5000BDFDD748016820461831FEF791FE28469E
:101F6000BDE87040012106E52DE9F04117460E4617
:101F7000050007D140F61732AFF21051AFF2F8402A
:101F800001F0A4FDCA4C206B38B940F61B32AFF209
:101F90002451AFF20C5001F099FD216846F0004049
:101FA0008861216828461831FEF75EFE3846BDE894
:101FB000F0410121DFE470B514460E46050007D15B
:101FC00040F63132AFF25C51AFF2445001F07EFD89
:101FD000B748016828461831FEF746FE0CB14FF0AD
:101FE000FF3621463046BDE87040C4E42DE9F0419B
:101FF000C068C4683CB940F66132AFF29051AFF2AC
:10200000785001F063FD04F118000746FEF750FE1A
:10201000A74D286B012658B13946A648FEF724FE85
:10202000E06A2968C96A884212D90120EE61D4E4C5
:10203000201DFEF73DFEE06A2A6906FA00F1114311
:1020400029619D4900EB800001EB8000211DE5E73F
:102050000020C2E470B5964D06460C46286B38B990
:1020600040F69932AFF2FC51AFF2E45001F02EFD90
:1020700044F000403060F4683CB940F6A132AFF261
:102080001461AFF2FC5001F021FD3046FEF710FE66
:10209000201DFEF70DFEE06A01262A6906FA00F10E
:1020A00011432961844900EB800001EB8000211D70
:1020B000FEF7DAFDE06A2968C96A884202D9012080
:1020C000EE6170BD002070BD10B5040007D140F670
:1020D000C132AFF26861AFF2506001F0F7FC7448B2
:1020E000016A2160C068606010BD70B50D460400D3
:1020F00007D140F6CB32AFF28C61AFF2746001F0E1
:10210000E5FC3DB940F6CC32AFF2A061AFF2886099
:1021100001F0DCFC00F092FE654AD06829684B1C97
:102120000FD02368126A934202D0626882420AD9B1
:102130006268801A884206D2081A28602046FFF793
:10214000C3FF002400E0012400F092FE204670BD91
:1021500057490120C86170475548416919B1006B62
:1021600018B1002070470120704702207047504985
:1021700008680A688069D26A0968C2F120028A6127
:10218000704770B50C46064600F058FE484D28686A
:10219000406C80B92968012081F848005CB10121B8
:1021A0002046FFF7E8FB45494FF080500860BFF339
:1021B0004F8FBFF36F8F00F05BFE00F03FFE28688B
:1021C000446C002034B116B12968486402E02A68E2
:1021D000611E5164296881F8480000F049FE2046DC
:1021E00070BD2DE9F0411E4615468846074600F0B1
:1021F00025FE2F4C206890F84800022814D0206853
:10220000416CB94341642168012081F848005EB106
:1022100001213046FFF7AFFB28494FF0805008609E
:10222000BFF34F8FBFF36F8F00F022FE00F006FE6A
:1022300015B12068406C2860206890F8480001289B
:102240000DD02068416C21EA080141640125216814
:10225000002081F8480000F00BFE284620E400250D
:10226000F5E72DE9F0411F4690460D4604004FF07A
:10227000010607D141F2FD02AFF61001AFF2F8708E
:1022800001F024FC00F0DAFD0FB1606C386094F8C6
:102290004800022184F84810B8F1050F17D2DFE892
:1022A00008F016030F151300616C29430AE00000C3
:1022B00028000020B80300201001002004ED00E0F9
:1022C000616C491C616402E0022803D06564012846
:1022D00002D02AE0002628E0201DFEF7E9FCC34DCD
:1022E000E06A01212A69814011432961C04900EB5C
:1022F000800001EB8000211DFEF7B6FCA06A38B11A
:1023000041F23512AFF69C01AFF6840001F0DEFB1E
:10231000E06A2968C96A884207D9B6494FF08050F7
:102320000860BFF34F8FBFF36F8F00F0A1FD304601
:1023300087E52DE9F0471F46DDF8209092460D46CF
:1023400004004FF0010807D141F26812AFF6E40132
:10235000AFF6CC0001F0BAFB00F0AFFD5020EFF378
:10236000118680F31188BFF34F8FBFF36F8F0FB1CA
:10237000606C386094F84800022184F84810BAF183
:10238000050F0ED2DFE80AF00D03060C0A00616C9F
:10239000294301E0616C491C616402E0022803D01A
:1023A0006564012803D031E04FF000082EE0A06AF8
:1023B00038B141F2AF12AFF64C11AFF6341001F064
:1023C00085FB8A4D286B012778B104F118018A48F2
:1023D000FEF74AFCE06A2968C96A884216D9B9F151
:1023E000000F12D0C9F8007010E0201DFEF760FC4D
:1023F000E06A2A6907FA00F11143296100EB8001C4
:102400007B4800EB8100211DE2E7EF6186F3118834
:102410004046BDE8F0872DE9F0418846040007D129
:1024200041F2E312AFF6BC11AFF6A41001F04EFB7F
:1024300000F043FD5020EFF3118780F31188BFF3C4
:102440004F8FBFF36F8F94F84800022184F8481033
:10245000616C491C616401282ED1A06A38B141F237
:102460000922AFF6F811AFF6E01001F02FFB5F4D37
:10247000286B012678B104F118015F48FEF7F4FBE0
:10248000E06A2968C96A884216D9B8F1000F12D0EB
:10249000C8F8006010E0201DFEF70AFCE06A2A6917
:1024A00006FA00F111432961514900EB800001EB6C
:1024B0008000211DE2E7EE6187F31188C1E410B5C9
:1024C00058B1044600F0BAFC94F84800022807D03E
:1024D000002400F0CDFC204610BD44480468F1E71C
:1024E000002084F848000124F3E72DE9F0470E4668
:1024F000DDE9098482466FF00301206B01EB820164
:102500000844089D20F007079946780705D040F257
:102510002B323AA140A001F0D9FA00202218315CF8
:1025200082F83410315C11B1401C1028F6D300261B
:1025300084F84360202D00D31F25201DE562FEF79F
:1025400090FB04F11800FEF78CFB2461C5F120001C
:102550006462A061666484F848604A465146384621
:1025600000F00DFC2060B8F1000F01D0C8F8004069
:102570004FE71E48416B096829B1416BC968C968BA
:102580004968816270474FF0FF31FAE710B50446A1
:10259000006B00F068FB2046BDE8104000F063BB14
:1025A00070B5154E114D14361CE0FFF717FA306860
:1025B00020B10024FFF784F9A4B901E00124F9E770
:1025C00000F03CFCF068C468201DFEF771FBA868B1
:1025D000401EA8606868401E686000F049FC204604
:1025E000FFF7D4FF68680028DFD170BD2800002005
:1025F0001001002004ED00E0B80300202E2E5C2E18
:102600002E5C4672656552544F535C7372635C7402
:1026100061736B732E6300004572726F723A25739B
:102620002C25640D0A00000070B500244160F74DB0
:102630000061914206D8D11A8269914206D2011DE9
:10264000286907E09A4203D2994201D3012403E0AA
:10265000011DE868FEF714FB204670BD2DE9FF4719
:102660009946DDF830A090460D4606004FF0000771
:1026700005D14FF4D372E6A1ECA001F027FAE34CA8
:10268000206880B1CDE900580296062D11DAFFF7D7
:1026900063FD02284FF0000309D00022694620683C
:1026A000FEF71BFC074604B03846BDE8F0875246EB
:1026B000F4E700234A466946FEF7BEFCF2E770B530
:1026C00086B0D24E53E00198002806DADDE9030116
:1026D000029A90470198002849DB039C606910B179
:1026E000201DFEF7E5FA05A800F04DF90546019812
:1026F0000A283CD2DFE800F00505053B2738050530
:102700003B270298A169034601442A462046FFF769
:102710008BFF00282BD0616A20468847E06901289A
:1027200025D1002000900298A16900234218194683
:102730002046FFF793FFD0B940F22132B4A1BBA0ED
:1027400001F0C4F913E00298A06128B94FF44E7269
:10275000AFA1B6A001F0BAF9A0692B4641191A46FB
:102760002046FFF761FF02E0204600F07CFA0023DC
:102770001A4601A93068FEF73FFD0028A3D106B034
:1027800070BDA24CE068016839B1002139B1002068
:1027900000F00BF9FFF793FFF4E70121F6E7C068BB
:1027A0000068F5E710B500F049FB984C2068A0B927
:1027B000A248FEF74BFAA1481430FEF747FA9F48AB
:1027C000E06014302061002210210A20FEF7C2FAD6
:1027D000206010B19AA1FEF7B3FEBDE8104000F0F2
:1027E00047BB1CB50024FFF7DDFF8848006868B1CF
:1027F00086491F20091DCDE9000100234FF4807296
:1028000091A19348FEF787FF040005D140F23312EF
:102810007FA186A001F05AF920461CBD2DE9F047A2
:102820000746994616460D462820DDF820A000F000
:10283000AFF9040014D0B8464F46D1462DB94FF435
:10284000C67284A18AA001F041F9FFF7ABFF04F141
:102850001801C4F8008081E8E002201DFEF701FAAB
:10286000204622E710B5694C606828B94FF4E87239
:1028700067A16EA001F02AF9606810BD10B50400D0
:1028800005D140F2D91262A168A001F01FF9A06938
:1028900010BD10B5040005D140F2E3125CA163A0A5
:1028A00001F014F9606810BD10B5040005D140F2C4
:1028B000ED1257A15DA001F009F9206810BD10B517
:1028C000040005D140F2DA3251A158A001F0FEF81F
:1028D00000F0B4FA606908B1012400E0002400F0BF
:1028E000C7FA204610BD10B5040005D140F2EF3202
:1028F00047A14EA001F0EAF800F0A0FA246A00F027
:10290000B7FA204610BD70B50D46040005D140F25F
:10291000FF323FA145A001F0D9F800F08FFA2562FF
:10292000BDE8704000F0A4BA7FB56FF0010401AEBD
:10293000009486E8070035481D4600232A4669466C
:102940000068FEF779FB04B070BD2DE9FF412F4C04
:1029500007469846206815460E4628B940F22B4295
:102960002BA132A001F0B2F84FF0FF30CDE9000703
:10297000CDE902650023424669462068FEF7ADFABC
:1029800004B0BDE8F08170B50546FFF7B7FA1F4EF9
:102990000446B068844203D200F074F8012000E0DD
:1029A000002028602046B46070BDF8B50D4606468C
:1029B000FFF714F86846FFF7E6FF0446009810B1E9
:1029C000FEF77EFFF8BD1148ADB101690968D9B1C4
:1029D0000025311B2A460068FEF7D3FDFEF770FF85
:1029E0000028EFD126494FF080500860BFF34F8F89
:1029F000BFF36F8FF8BDA642EBD8FEF761FF21460B
:102A0000304600F072F8F8BD0125E2E764000020CE
:102A10002E2E5C2E2E5C4672656552544F535C73AD
:102A200072635C74696D6572732E63004572726FB8
:102A3000723A25732C25640D0A000000F40300206F
:102A4000546D725100000000546D72205376630083
:102A5000832700082E2E5C2E2E5C4672656552542C
:102A60004F535C7372635C74696D6572732E63009F
:102A70004572726F723A25732C25640D0A000000AE
:102A800004ED00E0F8B52F4E27E0C068C468056883
:102A9000201DFEF70DF9616A20468847E06901288C
:102AA0001BD1A0692844A84206D924616060211D79
:102AB000F068FEF7E5F810E00020034601460090BC
:102AC0002A462046FFF7CAFD38B940F29232AFF2EB
:102AD0007C01AFF2640000F0F9FFF06801680029A2
:102AE000D3D13169C6E90310F8BDF8B505461548DC
:102AF0000E46C068C068C468201DFEF7D9F8E069BA
:102B0000012818D1A0692B46411932462046FFF70B
:102B10008BFD80B100200346014600902A462046E6
:102B2000FFF79CFD38B94FF40272AFF2D801AFF253
:102B3000C00000F0CBFF616A01B02046BDE8F04064
:102B4000084700006400002030B5744900E01146D9
:102B50000A688242FBD34B685C18844203D1406808
:102B600018444860084643681C18944209D16B4CCD
:102B7000103C2468A24209D052681A4442600A6894
:102B800012680260814200D0086030BD0460F9E73D
:102B90002DE9F04105460026FEF720FF5F4F103F6C
:102BA000386808B900F098F8F86805424ED1002D51
:102BB0004CD0083568070BD005F00700C0F10800BD
:102BC0000544680704D0BF2255A15FA000F07EFF36
:102BD000002D3BD07868854238D8504908460468B3
:102BE00001E0214604466068A84202D2206800281D
:102BF000F7D13868B846844228D00E68206808604B
:102C000060680836401B10280ED96719780704D071
:102C1000EC2243A14CA000F059FF6068401B786093
:102C200038466560FFF790FF6168D8F804004246B7
:102C3000401AC8F80400D8F80830984200D29060D2
:102C4000D8F80C0001430020C4E90001FEF738FE6B
:102C5000700705D04FF4967231A13BA000F036FF0B
:102C60003046BDE8F08170B500282BD02B4DA0F187
:102C70000804103D6068E968084205D14FF4A0726D
:102C800027A131A000F022FF206828B140F24112B4
:102C900023A12DA000F01AFF6068E968084211D056
:102CA0002268002A0ED188436060FEF797FE6068B4
:102CB0006968084468602046FFF746FFBDE8704039
:102CC000FEF7FEBD70BD15481038406870471348C8
:102CD00010388068704770471F484FF41041420712
:102CE00006D0C01D1C4920F00700411AC1F5104153
:102CF0000A4A00230144C2E900030839103A21F0CE
:102D0000070111604B600B600B1AC0E90013936060
:102D10004FF000405360D0607047000088000020F2
:102D20002E2E5C2E2E5C4672656552544F535C709D
:102D30006F72745C4D656D4D616E675C6865617046
:102D40005F342E63000000004572726F723A257383
:102D50002C25640D0A0000001C040020694840680E
:102D6000401C04D0F42268A171A000F0AFFE5020F6
:102D700080F31188BFF34F8FBFF36F8FFEE710B55D
:102D8000031F4FF080741C601B1F21F001011960AC
:102D9000191F6B4B0B60143940380A6010BD69482D
:102DA0004FF47A710068B0FBF1F14FF0E020491E5A
:102DB00041610721016170471CB5634908780190A2
:102DC000FF20087008788DF800009DF800004D4A3B
:102DD00000F0500010700720906007E09068401EDF
:102DE00090609DF8000040008DF800009DF8000004
:102DF0000006F3D4107A000200F4E06090600198BD
:102E000008705248016841F470010160016841F0A6
:102E100070410160FFF7C3FF00205060FDF7A4F987
:102E200000201CBD37484068B0F57A7F05D04FF4CC
:102E3000B57235A13EA000F049BE7047502080F326
:102E40001188BFF34F8FBFF36F8F2E494868401C26
:102E5000486001280BD13D481C38006810F0FF0F76
:102E600005D04FF4BD7228A131A000F02FBE7047ED
:102E700010B5244C606828B940F2811222A12CA020
:102E800000F024FE6068401E606001D180F311886C
:102E900010BD10B5502080F31188BFF34F8FBFF3E2
:102EA0006F8FFEF7B0FC20B128494FF080501C39DD
:102EB0000860002080F3118810BD10B5FDF78AF975
:102EC000104C10280CD300F1E02090F8F00321788A
:102ED000884205D24FF42A720BA115A000F0F6FD2E
:102EE0001A4814380068A16800F4E060884207D9E5
:102EF000BDE810404FF42E7203A10DA000F0E6BD16
:102F000010BD0000900000202E2E5C2E2E5C46721C
:102F1000656552544F535C706F72745C52564453E3
:102F20005C41524D5F434D335C706F72742E630091
:102F30004572726F723A25732C25640D0A000000E9
:102F40005D2D00080000002000E400E020ED00E01E
:102F500010B5FFF773FF00F03DFD00F043FA00F0FD
:102F60008EFB14480068FEF701FCBDE81040FFF737
:102F70007FBF1CB54FF44070FDF7EEF900F05CF92F
:102F80000DA000F0A3FD13A000F0A0FD094905204D
:102F9000CDE9000100234FF4007216A11948FEF795
:102FA000BAFB012802D04FF0FF301CBDFEF759FFDD
:102FB000FEE700009C0000205468697320697320BC
:102FC0004672656552544F5320746573742044658E
:102FD0006D6F0A004C69754D696E6720637265619B
:102FE0007465642040323032302D30382D31352038
:102FF0000A0000004170705461736B437265617424
:1030000065000000512F00087047FEE7FEE7FEE76D
:10301000FEE7704710B5FFF79FF8012803D0BDE821
:103020001040FFF736BF10BD10B5094C40F22551D6
:103030002046FDF7DBFD002808D02046FDF76FFD98
:10304000C1B2BDE8104003A000F040BD10BD0000BB
:10305000003801402563000010B586B0012104202E
:10306000FDF711FC01218803FDF70DFC4FF4007002
:10307000ADF8100018208DF8130003203C4C8DF89B
:10308000120004A92046FDF716FA2115ADF810101C
:1030900004218DF8131004A92046FDF70CFA4FF413
:1030A000E13000900020ADF80400ADF80600ADF866
:1030B0000800ADF80C000C202E4CADF80A00694653
:1030C0002046FDF75FFC4FF44070FDF745F92521E0
:1030D0008DF8141006208DF8150001218DF81610BA
:1030E0008DF8171005A8FDF73CF9012240F2255193
:1030F0002046FDF7C4FC01212046FDF7B6FC06B0D2
:1031000010BD10B50446FDF706FD80212046FDF7F1
:1031100063FD0028F9D010BD70B50D4606460024A9
:103120003046295DFFF7EDFF641C285D0028F7D1CC
:1031300040213046FDF750FD0028F9D070BD70B534
:103140000446080ACDB201462046FDF7E4FC802182
:103150002046FDF741FD0028F9D029462046FDF71D
:10316000DAFC80212046FDF737FD0028F9D070BD3C
:10317000000801400038014010B5012186B0080563
:10318000FDF78AFB01213020FDF77DFB18208DF82B
:1031900013004FF48050ADF8100003208DF812009A
:1031A00004A93F48FDF787F948208DF81300042053
:1031B000ADF8100004A93B48FDF77DF94FF4E1306C
:1031C00000900020ADF80400ADF80800ADF80C0048
:1031D0004FF400510C20344CADF80610ADF80A0045
:1031E00069462046FDF7CEFB012240F225512046DC
:1031F000FDF745FC01212046FDF737FC40F2266132
:103200002046FDF712FD06B010BD2DE9F041154630
:103210000E460746002405E0315D3846FFF771FF92
:10322000641CE4B2AC42F7D340213846FDF7D4FC2D
:103230000028F9D0BDE8F08108B5FFF79DFF4FF4F5
:103240004070FDF789F835208DF8000008208DF8D2
:10325000010000208DF8020001208DF8030068466F
:10326000FDF77FF808BD70B50F4D0446C1B2284682
:10327000FDF751FC40212846FDF7AEFC0028F9D0AF
:10328000204670BD10B5084C20212046FDF7A4FC57
:103290000028F9D02046BDE81040FDF740BC0000F2
:1032A00000100140001401400050004008B54FF0EC
:1032B000FF300090704800231A4603218068FFF712
:1032C000CDF9BDE8084000F0B2B81CB56B48012349
:1032D00000901A4614216AA0FFF7A0FA664CA0607D
:1032E00010B96BA000F0F2FB606848B90022012120
:1032F0000A20FDF72FFD606010B96DA000F0E6FB1D
:10330000714E4FF0FF394FF4867700254FF48778E0
:1033100000234A4601A96068FDF76EFF0028F7D038
:103320002088B8420ED89DF804103154401C2080EB
:10333000FEF7E4FD0246009500230121A068FFF797
:103340008DF9E5E761A000F0C1FB258041465E48AC
:1033500000F089FBDCE7032200210120FDF7FAFCE5
:10336000454CE06010B960A000F0B0FB4FF0FF35B5
:1033700000232A461946E068FDF73EFF0128F7D1F1
:1033800000F02EFAF4E77CB50020604C40F22555A1
:10339000009029462046FDF729FC002821D0294627
:1033A0002046FDF742FC2046FDF7B9FB8DF80400EE
:1033B00031484068002814D000236A4601A9FDF76F
:1033C0003BFE012802D052A000F080FB00980028AC
:1033D00007D055494FF080500860BFF34F8FBFF3BF
:1033E0006F8F7CBD1CB5244908201031C401CDE984
:1033F0000001002322464DA15048FEF78CF9012818
:1034000003D04FA000F062FBFEE71B4909201431F6
:10341000CDE900010023224650A15548FEF77BF973
:10342000012803D053A000F051FBFEE71CBD2DE99D
:10343000F041254E0025104C30784FF48777012855
:1034400013D121883046891E00F0A2F8218831442A
:1034500031F8021C814208D12580E068BDE8F041C6
:1034600000231A461946FDF738BD3946164800F0C4
:10347000FAFA2580BDE8F081A0000020AD320008F6
:103480004175746F52656C6F616454696D6572004B
:103490004D4220726563762074696D657220637297
:1034A00065617465206661696C7572650A0000006B
:1034B0004372656174652071756575652066616923
:1034C0006C757265210D0A001C9400204552524F04
:1034D000522D3E20636D645F427566204F56455203
:1034E000464C4F570A0000004372656174652042E4
:1034F000696E6172792073616D6F70686F7265209B
:103500006661696C757265210D0A0000005000400B
:1035100051756575652073656E64206661696C75AB
:103520007265210A0000000004ED00E04D425F7268
:103530006563656976655F7461736B00CB32000803
:10354000437265617465204D425F7265636569769B
:1035500065204661696C757265200A004D425F63A3
:103560006D645F70617273655F7461736B000000FE
:103570005733000843726561746520636D645F7042
:1035800061727365204661696C757265200A00007E
:1035900070B504464FF6FF700022064D07E0A65CAA
:1035A000C3B27340521C35F8133083EA10208A42AC
:1035B000F5DB70BDC43C0008D84800224FF07E51B6
:1035C0008287C264C0E91012D5498164B0F8F01056
:1035D00041F48061A0F8F010704770471FB5D148E2
:1035E000CE491DC88DE81D006A4600204DF6FA63DD
:1035F00021F81030401CC0B21C28F9D3C74B4FF43F
:1036000087701880002030211154401CC0B210284F
:10361000FAD3002058849884D886B3F8F00040F498
:103620008070A3F8F0001FBDBC4910B502464B885E
:103630000020632B00D904208B88632B00D9042041
:10364000CB88632B00D904200B89B3F57A7F00D394
:1036500004208C8C48F694639C4200D904200B888B
:10366000B3F5877F01D0042001E0002806D0002AAE
:1036700004D031F8F02F42F400720A8010BD10B56A
:10368000FFF79AFFA54C022040F20B11A4F8E800C6
:1036900021800021E186A4F874010120FFF7C4FF16
:1036A00008B1FFF79BFF032024F8EA0F0420608095
:1036B0000520A0800620E08007202081082060816E
:1036C00010BDF0B503460020A3F500740746B4F51D
:1036D000FF7F01D20420F0BDA3F2FE344FF6FF7548
:1036E000012C0AD8A3B205EA43046318042B01D9BC
:1036F0000220F0BD894D38351AE0A3F5C0644FF4BF
:103700000076B44207D2A3B205EA43046318642BDF
:10371000EED8854D0CE0A3F50063B342E8D29BB22E
:1037200005EA43046318AC2BE2D87C4D3C350127F5
:1037300000230CE0D61896F801C0E61805F806C07C
:1037400012F803C02E449B1C86F801C0DBB28B42EA
:10375000F0D3F0BDF0B5044600234FF400771846CF
:103760004FF6FF76BC4207D206EA440465188C2D5A
:1037700028D86D4D8C3D30E0A4F50075B5F5FF7F80
:1037800007D2ACB206EA44046518382D1AD8634D46
:1037900023E0A4F5C065BD4207D2ACB206EA4404FA
:1037A0006518642D0ED8604D17E0A4F50064BC4286
:1037B00008D2A4B206EA44046518AC2D02D8574DCD
:1037C0003C350AE00220F0BDE61877197F78D7541F
:1037D000D718AE5D9B1C7E70DBB28B42F4D3F0BD7C
:1037E00070B5524C504D03266078643506282DD0B4
:1037F00004DC03280DD0042804D10AE0102838D0B6
:1038000017284CD02178297040F080006870012082
:1038100070E0A08841BA491E7D2901D3032063E0EE
:1038200040BA4006010E6088EA1C40BAFFF792FFDA
:1038300058E02078287060786870A08841BA40BA53
:10384000490006EB4000A97084B255E06088221D53
:1038500040BA02211EE02078287060786870A07855
:10386000A870E078E8702079287160796871062482
:1038700042E0A08841BA491E7B29CFD2A17942BA41
:10388000D2B2B1EB420FC9D140BA4006010E6088F6
:10389000E21D40BAFFF715FF0028DCD024E0A08825
:1038A00041BA491E7D29B9D221894ABA521E792AC4
:1038B000B4D2A27A49BAC9B2B2EB410FAED140BA82
:1038C0004006010E6088EA1C40BAFFF743FF58B972
:1038D0002089164A40BA4006010EE0880B3240BAF1
:1038E000FFF7EFFE0028A4D021782970617841F01D
:1038F00080016970A87003240B4821466430FFF7EB
:1039000047FE28552919000A4870A41CA2B2BDE838
:103910007040054906486431FFF777BC2C950020BC
:103920003333A741C43E0008A09600201C94002019
:103930000050004038B501214020FCF7A4FF4FF4AF
:103940007050ADF8000010208DF8030003202C4CBF
:103950008DF8020069462046FCF7ADFD2115204692
:10396000FCF713FEE1142046FCF70FFEA1142046DD
:10397000FCF70BFE61142046FCF707FE38BD204E15
:103980000025DFF87C804FF480570C36052C09D2D7
:10399000DFE804F003080308030039464046FCF75B
:1039A000F6FD03E039464046FCF7EFFD2046641C77
:1039B000E4B20A2800D9002428466D1CEDB2032881
:1039C00004D93068002580F4006030606420FEF780
:1039D00068F8DBE71CB5FFF7ADFF0A490A20CDE91F
:1039E000000100234FF4007207A10A48FDF793FE7F
:1039F000012803D008A000F069F8FEE71CBD000014
:103A000000180140B80000204C45445F5461736BBE
:103A1000000000007F390008437265617465206C06
:103A200065645F7461736B204661696C75726520B3
:103A30000A00000040EA01039B0703D009E008C91F
:103A4000121F08C0042AFAD203E011F8013B00F863
:103A5000013B521EF9D27047D2B201E000F8012BAF
:103A6000491EFBD270470022F6E710B513460A46FE
:103A700004461946FFF7F0FF204610BD30B50B464F
:103A8000014600202022012409E021FA02F59D428E
:103A900005D303FA02F5491B04FA02F52844151E62
:103AA000A2F10102F1DC30BD064C074D06E0E068F2
:103AB00040F0010394E8070098471034AC42F6D375
:103AC000FCF73AFBD43E0008F43E00080FB4054B67
:103AD00010B503A9044A029800F018F810BC5DF86C
:103AE00014FB000067320008BC00002002E008C898
:103AF000121F08C1002AFAD170477047002001E068
:103B000001C1121F002AFBD1704700002DE9FF4FB1
:103B10008BB09A460F460546002606E025280BD0B6
:103B200052460D9990476D1C761C28780028F5D1D7
:103B30000FB03046BDE8F08F0024A0460122604956
:103B400000E0044315F8013F203B02FA03F008426D
:103B5000F7D128782E2817D115F8010F44F0040466
:103B60002A280ED06FF02F022878A0F13001092901
:103B70000AD808EB880102EB410100EB01086D1C3B
:103B8000F2E757F8048B6D1C287869283ED006DCD4
:103B90000028CDD063280BD0642804D136E07328E8
:103BA00010D075284BD052460D999047761C85E071
:103BB00017F8040B8DF8000000208DF80100E9468D
:103BC000012003E057F8049B4FF0FF3061074FF0EE
:103BD000000401D40AE0641C44450DDA8442FADB97
:103BE00019F804100029F6D106E0641C8442FCDBBD
:103BF00019F804100029F8D1264404E019F8010B43
:103C000052460D999047641EF8D257E001CF4FF00D
:103C10000A0B002802DA40422D2102E0210504D5DA
:103C20002B218DF82410012103E0E10705D020218C
:103C3000F7E70DF1200908910CE00021F9E701CF29
:103C40004FF00A0BF9E75946FFF718FF01F1300270
:103C500009F8012D0028F6D1ADEB090000F1200B89
:103C6000600701D44FF00108D84502DDA8EB0B0036
:103C700000E000208046002406E009A85246005DCE
:103C80000D999047641C761C08988442F5DB04E08B
:103C9000302052460D999047761CB8F10001A8F1EA
:103CA0000108F5DC05E019F8010B52460D99904723
:103CB000761CBBF10001ABF1010BF4DC6D1C34E7A9
:103CC000092801000000C1C081C1400101C3C00337
:103CD000800241C201C6C006800741C70005C1C5B8
:103CE00081C4400401CCC00C800D41CD000FC1CF78
:103CF00081CE400E000AC1CA81CB400B01C9C00968
:103D0000800841C801D8C018801941D9001BC1DB07
:103D100081DA401A001EC1DE81DF401F01DDC01DB7
:103D2000801C41DC0014C1D481D5401501D7C017D7
:103D3000801641D601D2C012801341D30011C1D1E7
:103D400081D0401001F0C030803141F10033C1F327
:103D500081F240320036C1F681F7403701F5C035B7
:103D6000803441F4003CC1FC81FD403D01FFC03F77
:103D7000803E41FE01FAC03A803B41FB0039C1F967
:103D800081F840380028C1E881E9402901EBC02BC7
:103D9000802A41EA01EEC02E802F41EF002DC1EDB7
:103DA00081EC402C01E4C024802541E50027C1E7D7
:103DB00081E640260022C1E281E3402301E1C021E7
:103DC000802041E001A0C060806141A10063C1A3E7
:103DD00081A240620066C1A681A7406701A5C065B7
:103DE000806441A4006CC1AC81AD406D01AFC06F77
:103DF000806E41AE01AAC06A806B41AB0069C1A967
:103E000081A840680078C1B881B9407901BBC07B06
:103E1000807A41BA01BEC07E807F41BF007DC1BDB6
:103E200081BC407C01B4C074807541B50077C1B7D6
:103E300081B640760072C1B281B3407301B1C071E6
:103E4000807041B00050C190819140510193C053A6
:103E5000805241920196C056805741970055C195B6
:103E600081944054019CC05C805D419D005FC19F76
:103E7000819E405E005AC19A819B405B0199C05966
:103E8000805841980188C04880494189004BC18BC6
:103E9000818A404A004EC18E818F404F018DC04DB6
:103EA000804C418C0044C184818540450187C047D6
:103EB000804641860182C042804341830041C181E6
:103EC000818040404B006100740069006500000083
:103ED00000000000F43E000800000020C0000000C8
:103EE000EC3A0008B43F0008C0000020489B0000E6
:103EF000FC3A000800A24A04000000000000000094
:103F00000102030406070809020406080000000075
:103F1000010203040102030406070809000000006F
:103F20000000000000000000000000000000000091
:103F30000000000000000000000000000000000081
:103F40000000000000000000000000000000000071
:103F50000000000000000000000000000000000061
:103F60000000000000000000000000000000000051
:103F70000000000000000000000000000000000041
:103F80000000000000000000AAAAAAAA0000000089
:103F90000000000000000000000000000000000021
:103FA0000000000000000000000000000000000011
:043FB000000000000D
:0400000508000131BD
:00000001FF
